{
  "_format": "hh-sol-artifact-1",
  "contractName": "Marketplace",
  "sourceName": "contracts/Marketplace.sol",
  "abi": [
    {
      "anonymous": false,
      "inputs": [
        {
          "indexed": true,
          "internalType": "address",
          "name": "buyer",
          "type": "address"
        },
        {
          "indexed": true,
          "internalType": "address",
          "name": "owner",
          "type": "address"
        },
        {
          "indexed": true,
          "internalType": "uint256",
          "name": "tokenId",
          "type": "uint256"
        },
        {
          "indexed": false,
          "internalType": "address",
          "name": "nftContractAddress",
          "type": "address"
        },
        {
          "indexed": false,
          "internalType": "uint256",
          "name": "price",
          "type": "uint256"
        }
      ],
      "name": "Buy",
      "type": "event"
    },
    {
      "anonymous": false,
      "inputs": [
        {
          "indexed": true,
          "internalType": "address",
          "name": "owner",
          "type": "address"
        },
        {
          "indexed": true,
          "internalType": "uint256",
          "name": "tokenId",
          "type": "uint256"
        },
        {
          "indexed": true,
          "internalType": "address",
          "name": "nftContractAddress",
          "type": "address"
        }
      ],
      "name": "Cancel",
      "type": "event"
    },
    {
      "anonymous": false,
      "inputs": [
        {
          "indexed": true,
          "internalType": "address",
          "name": "owner",
          "type": "address"
        },
        {
          "indexed": true,
          "internalType": "uint256",
          "name": "tokenId",
          "type": "uint256"
        },
        {
          "indexed": false,
          "internalType": "address",
          "name": "nftContractAddress",
          "type": "address"
        },
        {
          "indexed": false,
          "internalType": "uint256",
          "name": "price",
          "type": "uint256"
        }
      ],
      "name": "List",
      "type": "event"
    },
    {
      "inputs": [
        {
          "internalType": "uint256",
          "name": "tokenId",
          "type": "uint256"
        },
        {
          "internalType": "address",
          "name": "nftContractAddress",
          "type": "address"
        }
      ],
      "name": "buyNFT",
      "outputs": [],
      "stateMutability": "payable",
      "type": "function"
    },
    {
      "inputs": [
        {
          "internalType": "uint256",
          "name": "tokenId",
          "type": "uint256"
        },
        {
          "internalType": "address",
          "name": "nftContractAddress",
          "type": "address"
        }
      ],
      "name": "cancelListing",
      "outputs": [],
      "stateMutability": "nonpayable",
      "type": "function"
    },
    {
      "inputs": [
        {
          "internalType": "uint256",
          "name": "tokenId",
          "type": "uint256"
        },
        {
          "internalType": "uint256",
          "name": "price",
          "type": "uint256"
        },
        {
          "internalType": "address",
          "name": "_nftContractAddress",
          "type": "address"
        }
      ],
      "name": "listNFT",
      "outputs": [],
      "stateMutability": "nonpayable",
      "type": "function"
    },
    {
      "inputs": [
        {
          "internalType": "address",
          "name": "",
          "type": "address"
        },
        {
          "internalType": "uint256",
          "name": "",
          "type": "uint256"
        }
      ],
      "name": "listings",
      "outputs": [
        {
          "internalType": "uint256",
          "name": "",
          "type": "uint256"
        }
      ],
      "stateMutability": "view",
      "type": "function"
    }
  ],
  "bytecode": "0x608060405234801561001057600080fd5b5060016000819055506113fc806100286000396000f3fe60806040526004361061003e5760003560e01c806207df301461004357806302998cf31461008057806360101d3a146100a9578063d8db47a7146100d2575b600080fd5b34801561004f57600080fd5b5061006a60048036038101906100659190610e81565b6100ee565b6040516100779190610ed0565b60405180910390f35b34801561008c57600080fd5b506100a760048036038101906100a29190610eeb565b610113565b005b3480156100b557600080fd5b506100d060048036038101906100cb9190610f3e565b6104bb565b005b6100ec60048036038101906100e79190610f3e565b6107d8565b005b6001602052816000526040600020602052806000526040600020600091509150505481565b61012767ed01516a3c2ba60f60c01b610de5565b61013b6741c3ce6f4431f1a560c01b610de5565b61014f67821729303839615060c01b610de5565b610163672e93e52ed3ea254660c01b610de5565b6000600160008373ffffffffffffffffffffffffffffffffffffffff1673ffffffffffffffffffffffffffffffffffffffff168152602001908152602001600020600085815260200190815260200160002054146101f6576040517f08c379a00000000000000000000000000000000000000000000000000000000081526004016101ed90610fdb565b60405180910390fd5b61020a67740120260a9bf06160c01b610de5565b61021e67eb0f74be1491577560c01b610de5565b61023267733c36cc53fb9c6660c01b610de5565b61024667abc81eb78bb02aaf60c01b610de5565b8073ffffffffffffffffffffffffffffffffffffffff16636352211e846040518263ffffffff1660e01b815260040161027f9190610ed0565b602060405180830381865afa15801561029c573d6000803e3d6000fd5b505050506040513d601f19601f820116820180604052508101906102c09190611010565b73ffffffffffffffffffffffffffffffffffffffff163373ffffffffffffffffffffffffffffffffffffffff161461032d576040517f08c379a0000000000000000000000000000000000000000000000000000000008152600401610324906110af565b60405180910390fd5b61034167eed23ef337b5970860c01b610de5565b610355674e662827407ed47360c01b610de5565b6103696794de689d74a5597460c01b610de5565b61037d673c6a6c03dfaae2ab60c01b610de5565b600082116103c0576040517f08c379a00000000000000000000000000000000000000000000000000000000081526004016103b79061111b565b60405180910390fd5b6103d46737d2be8d233c554260c01b610de5565b6103e8672611e4ecd5dc724060c01b610de5565b81600160008373ffffffffffffffffffffffffffffffffffffffff1673ffffffffffffffffffffffffffffffffffffffff1681526020019081526020016000206000858152602001908152602001600020819055506104516704c22666816c5dda60c01b610de5565b61046567131943f028af492f60c01b610de5565b823373ffffffffffffffffffffffffffffffffffffffff167f9b2c2060125acbb354a4a920d52588cb0024b0eead356cfc9f62c3b041fe3c6383856040516104ae92919061114a565b60405180910390a3505050565b6104cf674b871e2c59754c8c60c01b610de5565b6104e3675dc2b6fd7fa32cc260c01b610de5565b6104f767664bf81e0b088e0960c01b610de5565b61050b67230c566c40506ce760c01b610de5565b6000600160008373ffffffffffffffffffffffffffffffffffffffff1673ffffffffffffffffffffffffffffffffffffffff1681526020019081526020016000206000848152602001908152602001600020540361059e576040517f08c379a0000000000000000000000000000000000000000000000000000000008152600401610595906111bf565b60405180910390fd5b6105b2675c7d23f1f4a75a8f60c01b610de5565b6105c6673bfb8a0a3876724260c01b610de5565b6105da67b33c6437a8d27d0a60c01b610de5565b6105ee679e2ad5d928ae003c60c01b610de5565b8073ffffffffffffffffffffffffffffffffffffffff16636352211e836040518263ffffffff1660e01b81526004016106279190610ed0565b602060405180830381865afa158015610644573d6000803e3d6000fd5b505050506040513d601f19601f820116820180604052508101906106689190611010565b73ffffffffffffffffffffffffffffffffffffffff163373ffffffffffffffffffffffffffffffffffffffff16146106d5576040517f08c379a00000000000000000000000000000000000000000000000000000000081526004016106cc90611251565b60405180910390fd5b6106e967fd8bc12b9524c2bd60c01b610de5565b6106fd6793d237f03d89ed2260c01b610de5565b600160008273ffffffffffffffffffffffffffffffffffffffff1673ffffffffffffffffffffffffffffffffffffffff16815260200190815260200160002060008381526020019081526020016000206000905561076567c17906030f60800360c01b610de5565b6107796727d94d3eaed5c3e260c01b610de5565b8073ffffffffffffffffffffffffffffffffffffffff16823373ffffffffffffffffffffffffffffffffffffffff167f9ea4986863fc3dd36f15c8e76cecf44f311c121dc511ea352087a3e351b27ec960405160405180910390a45050565b6107ec67054c6fbe8678b3ca60c01b610de5565b61080067a37aecf7652c28c160c01b610de5565b6108146779b63ca7d207bde360c01b610de5565b61082867577c4761e64e5d9160c01b610de5565b6000600160008373ffffffffffffffffffffffffffffffffffffffff1673ffffffffffffffffffffffffffffffffffffffff168152602001908152602001600020600084815260200190815260200160002054036108bb576040517f08c379a00000000000000000000000000000000000000000000000000000000081526004016108b2906111bf565b60405180910390fd5b6108cf67bc25ee846aea55a360c01b610de5565b6108e3679328f247bad2d60360c01b610de5565b6108f7677c61606b6debc86360c01b610de5565b61090b67dc9926134f57fbc760c01b610de5565b600160008273ffffffffffffffffffffffffffffffffffffffff1673ffffffffffffffffffffffffffffffffffffffff16815260200190815260200160002060008381526020019081526020016000205434101561099e576040517f08c379a0000000000000000000000000000000000000000000000000000000008152600401610995906112bd565b60405180910390fd5b6109b267ab4b7d92938b717460c01b610de5565b6109c66709fa010142b57e7a60c01b610de5565b6109da67bdb9021ed5c2a07c60c01b610de5565b60008173ffffffffffffffffffffffffffffffffffffffff16636352211e846040518263ffffffff1660e01b8152600401610a159190610ed0565b602060405180830381865afa158015610a32573d6000803e3d6000fd5b505050506040513d601f19601f82011682018060405250810190610a569190611010565b9050610a6c67afb2f00ff6b3520b60c01b610de5565b610a8067c1281e88b59be64760c01b610de5565b6000600160008473ffffffffffffffffffffffffffffffffffffffff1673ffffffffffffffffffffffffffffffffffffffff1681526020019081526020016000206000858152602001908152602001600020549050610ae96796d6aa938de25da260c01b610de5565b600160008473ffffffffffffffffffffffffffffffffffffffff1673ffffffffffffffffffffffffffffffffffffffff168152602001908152602001600020600085815260200190815260200160002060009055610b5167bb49fe8461c096c460c01b610de5565b610b65677c56cd66d4a9d86760c01b610de5565b6000829050610b7e675db3ebe4b1c61bf660c01b610de5565b610b92673a29c4788d4d081560c01b610de5565b60008173ffffffffffffffffffffffffffffffffffffffff1634604051610bb89061130e565b60006040518083038185875af1925050503d8060008114610bf5576040519150601f19603f3d011682016040523d82523d6000602084013e610bfa565b606091505b50509050610c126742b23c3b6ac43aee60c01b610de5565b610c266720d0c3866bd8eca460c01b610de5565b80610ca257610c3f67273003f08147edcb60c01b610de5565b610c5367f439e948f36e149960c01b610de5565b610c67670db1830f77a1b0c160c01b610de5565b6040517f08c379a0000000000000000000000000000000000000000000000000000000008152600401610c999061136f565b60405180910390fd5b610cb66756bb36f7bbdf2abc60c01b610de5565b610cca67d37ede5e71ce81f560c01b610de5565b610cde67b9a8f0f091cd133760c01b610de5565b8473ffffffffffffffffffffffffffffffffffffffff166323b872dd8533896040518463ffffffff1660e01b8152600401610d1b9392919061138f565b600060405180830381600087803b158015610d3557600080fd5b505af1158015610d49573d6000803e3d6000fd5b50505050610d6167a5e8022bb74f54d160c01b610de5565b610d7567dc306d8c0664d1b060c01b610de5565b858473ffffffffffffffffffffffffffffffffffffffff163373ffffffffffffffffffffffffffffffffffffffff167f8870a84c4ffeabaf12b2d60c6cd4671cd4fc012d1b850f5643a16174af0161848887604051610dd592919061114a565b60405180910390a4505050505050565b50565b600080fd5b600073ffffffffffffffffffffffffffffffffffffffff82169050919050565b6000610e1882610ded565b9050919050565b610e2881610e0d565b8114610e3357600080fd5b50565b600081359050610e4581610e1f565b92915050565b6000819050919050565b610e5e81610e4b565b8114610e6957600080fd5b50565b600081359050610e7b81610e55565b92915050565b60008060408385031215610e9857610e97610de8565b5b6000610ea685828601610e36565b9250506020610eb785828601610e6c565b9150509250929050565b610eca81610e4b565b82525050565b6000602082019050610ee56000830184610ec1565b92915050565b600080600060608486031215610f0457610f03610de8565b5b6000610f1286828701610e6c565b9350506020610f2386828701610e6c565b9250506040610f3486828701610e36565b9150509250925092565b60008060408385031215610f5557610f54610de8565b5b6000610f6385828601610e6c565b9250506020610f7485828601610e36565b9150509250929050565b600082825260208201905092915050565b7f546f6b656e20616c7265616479206c6973746564000000000000000000000000600082015250565b6000610fc5601483610f7e565b9150610fd082610f8f565b602082019050919050565b60006020820190508181036000830152610ff481610fb8565b9050919050565b60008151905061100a81610e1f565b92915050565b60006020828403121561102657611025610de8565b5b600061103484828501610ffb565b91505092915050565b7f4f6e6c79206f776e65722063616e206c69737420746865204e465420666f722060008201527f73616c6500000000000000000000000000000000000000000000000000000000602082015250565b6000611099602483610f7e565b91506110a48261103d565b604082019050919050565b600060208201905081810360008301526110c88161108c565b9050919050565b7f5072696365206d7573742062652067726561746572207468616e207a65726f00600082015250565b6000611105601f83610f7e565b9150611110826110cf565b602082019050919050565b60006020820190508181036000830152611134816110f8565b9050919050565b61114481610e0d565b82525050565b600060408201905061115f600083018561113b565b61116c6020830184610ec1565b9392505050565b7f546f6b656e206973206e6f74206c697374656400000000000000000000000000600082015250565b60006111a9601383610f7e565b91506111b482611173565b602082019050919050565b600060208201905081810360008301526111d88161119c565b9050919050565b7f4f6e6c79206f776e65722063616e2063616e63656c20746865206c697374696e60008201527f6700000000000000000000000000000000000000000000000000000000000000602082015250565b600061123b602183610f7e565b9150611246826111df565b604082019050919050565b6000602082019050818103600083015261126a8161122e565b9050919050565b7f496e73756666696369656e742066756e64730000000000000000000000000000600082015250565b60006112a7601283610f7e565b91506112b282611271565b602082019050919050565b600060208201905081810360008301526112d68161129a565b9050919050565b600081905092915050565b50565b60006112f86000836112dd565b9150611303826112e8565b600082019050919050565b6000611319826112eb565b9150819050919050565b7f5472616e73616374696f6e206661696c65640000000000000000000000000000600082015250565b6000611359601283610f7e565b915061136482611323565b602082019050919050565b600060208201905081810360008301526113888161134c565b9050919050565b60006060820190506113a4600083018661113b565b6113b1602083018561113b565b6113be6040830184610ec1565b94935050505056fea2646970667358221220728ee59a44eb4db8979a5906d4ee0adad5765c7903597019a09c9660c63f194064736f6c63430008110033",
  "linkReferences": {},
  "deployedLinkReferences": {}
}