{
  "_format": "hh-sol-artifact-1",
  "contractName": "NFT",
  "sourceName": "contracts/NFT.sol",
  "abi": [
    {
      "inputs": [],
      "stateMutability": "nonpayable",
      "type": "constructor"
    },
    {
      "anonymous": false,
      "inputs": [
        {
          "indexed": true,
          "internalType": "address",
          "name": "owner",
          "type": "address"
        },
        {
          "indexed": true,
          "internalType": "address",
          "name": "approved",
          "type": "address"
        },
        {
          "indexed": true,
          "internalType": "uint256",
          "name": "tokenId",
          "type": "uint256"
        }
      ],
      "name": "Approval",
      "type": "event"
    },
    {
      "anonymous": false,
      "inputs": [
        {
          "indexed": true,
          "internalType": "address",
          "name": "owner",
          "type": "address"
        },
        {
          "indexed": true,
          "internalType": "address",
          "name": "operator",
          "type": "address"
        },
        {
          "indexed": false,
          "internalType": "bool",
          "name": "approved",
          "type": "bool"
        }
      ],
      "name": "ApprovalForAll",
      "type": "event"
    },
    {
      "anonymous": false,
      "inputs": [
        {
          "indexed": false,
          "internalType": "uint256",
          "name": "_fromTokenId",
          "type": "uint256"
        },
        {
          "indexed": false,
          "internalType": "uint256",
          "name": "_toTokenId",
          "type": "uint256"
        }
      ],
      "name": "BatchMetadataUpdate",
      "type": "event"
    },
    {
      "anonymous": false,
      "inputs": [
        {
          "indexed": false,
          "internalType": "uint256",
          "name": "_tokenId",
          "type": "uint256"
        }
      ],
      "name": "MetadataUpdate",
      "type": "event"
    },
    {
      "anonymous": false,
      "inputs": [
        {
          "indexed": true,
          "internalType": "address",
          "name": "from",
          "type": "address"
        },
        {
          "indexed": true,
          "internalType": "address",
          "name": "to",
          "type": "address"
        },
        {
          "indexed": true,
          "internalType": "uint256",
          "name": "tokenId",
          "type": "uint256"
        }
      ],
      "name": "Transfer",
      "type": "event"
    },
    {
      "inputs": [
        {
          "internalType": "address",
          "name": "to",
          "type": "address"
        },
        {
          "internalType": "uint256",
          "name": "tokenId",
          "type": "uint256"
        }
      ],
      "name": "approve",
      "outputs": [],
      "stateMutability": "nonpayable",
      "type": "function"
    },
    {
      "inputs": [
        {
          "internalType": "address",
          "name": "owner",
          "type": "address"
        }
      ],
      "name": "balanceOf",
      "outputs": [
        {
          "internalType": "uint256",
          "name": "",
          "type": "uint256"
        }
      ],
      "stateMutability": "view",
      "type": "function"
    },
    {
      "inputs": [
        {
          "internalType": "uint256",
          "name": "tokenId",
          "type": "uint256"
        }
      ],
      "name": "getApproved",
      "outputs": [
        {
          "internalType": "address",
          "name": "",
          "type": "address"
        }
      ],
      "stateMutability": "view",
      "type": "function"
    },
    {
      "inputs": [
        {
          "internalType": "address",
          "name": "owner",
          "type": "address"
        },
        {
          "internalType": "address",
          "name": "operator",
          "type": "address"
        }
      ],
      "name": "isApprovedForAll",
      "outputs": [
        {
          "internalType": "bool",
          "name": "",
          "type": "bool"
        }
      ],
      "stateMutability": "view",
      "type": "function"
    },
    {
      "inputs": [],
      "name": "name",
      "outputs": [
        {
          "internalType": "string",
          "name": "",
          "type": "string"
        }
      ],
      "stateMutability": "view",
      "type": "function"
    },
    {
      "inputs": [
        {
          "internalType": "uint256",
          "name": "tokenId",
          "type": "uint256"
        }
      ],
      "name": "ownerOf",
      "outputs": [
        {
          "internalType": "address",
          "name": "",
          "type": "address"
        }
      ],
      "stateMutability": "view",
      "type": "function"
    },
    {
      "inputs": [
        {
          "internalType": "address",
          "name": "marketplaceAddress",
          "type": "address"
        },
        {
          "internalType": "address",
          "name": "creator",
          "type": "address"
        }
      ],
      "name": "safeMint",
      "outputs": [
        {
          "internalType": "uint256",
          "name": "",
          "type": "uint256"
        }
      ],
      "stateMutability": "payable",
      "type": "function"
    },
    {
      "inputs": [
        {
          "internalType": "address",
          "name": "from",
          "type": "address"
        },
        {
          "internalType": "address",
          "name": "to",
          "type": "address"
        },
        {
          "internalType": "uint256",
          "name": "tokenId",
          "type": "uint256"
        }
      ],
      "name": "safeTransferFrom",
      "outputs": [],
      "stateMutability": "nonpayable",
      "type": "function"
    },
    {
      "inputs": [
        {
          "internalType": "address",
          "name": "from",
          "type": "address"
        },
        {
          "internalType": "address",
          "name": "to",
          "type": "address"
        },
        {
          "internalType": "uint256",
          "name": "tokenId",
          "type": "uint256"
        },
        {
          "internalType": "bytes",
          "name": "data",
          "type": "bytes"
        }
      ],
      "name": "safeTransferFrom",
      "outputs": [],
      "stateMutability": "nonpayable",
      "type": "function"
    },
    {
      "inputs": [
        {
          "internalType": "address",
          "name": "operator",
          "type": "address"
        },
        {
          "internalType": "bool",
          "name": "approved",
          "type": "bool"
        }
      ],
      "name": "setApprovalForAll",
      "outputs": [],
      "stateMutability": "nonpayable",
      "type": "function"
    },
    {
      "inputs": [
        {
          "internalType": "bytes4",
          "name": "interfaceId",
          "type": "bytes4"
        }
      ],
      "name": "supportsInterface",
      "outputs": [
        {
          "internalType": "bool",
          "name": "",
          "type": "bool"
        }
      ],
      "stateMutability": "view",
      "type": "function"
    },
    {
      "inputs": [],
      "name": "symbol",
      "outputs": [
        {
          "internalType": "string",
          "name": "",
          "type": "string"
        }
      ],
      "stateMutability": "view",
      "type": "function"
    },
    {
      "inputs": [
        {
          "internalType": "uint256",
          "name": "tokenId",
          "type": "uint256"
        }
      ],
      "name": "tokenURI",
      "outputs": [
        {
          "internalType": "string",
          "name": "",
          "type": "string"
        }
      ],
      "stateMutability": "view",
      "type": "function"
    },
    {
      "inputs": [
        {
          "internalType": "address",
          "name": "from",
          "type": "address"
        },
        {
          "internalType": "address",
          "name": "to",
          "type": "address"
        },
        {
          "internalType": "uint256",
          "name": "tokenId",
          "type": "uint256"
        }
      ],
      "name": "transferFrom",
      "outputs": [],
      "stateMutability": "nonpayable",
      "type": "function"
    }
  ],
  "bytecode": "0x60806040523480156200001157600080fd5b506040518060400160405280600a81526020017f5472616465204e465473000000000000000000000000000000000000000000008152506040518060400160405280600381526020017f4e4654000000000000000000000000000000000000000000000000000000000081525081600090816200008f919062000343565b508060019081620000a1919062000343565b505050620000c067aa709ed6d0acf89160c01b620000c660201b60201c565b6200042a565b50565b600081519050919050565b7f4e487b7100000000000000000000000000000000000000000000000000000000600052604160045260246000fd5b7f4e487b7100000000000000000000000000000000000000000000000000000000600052602260045260246000fd5b600060028204905060018216806200014b57607f821691505b60208210810362000161576200016062000103565b5b50919050565b60008190508160005260206000209050919050565b60006020601f8301049050919050565b600082821b905092915050565b600060088302620001cb7fffffffffffffffffffffffffffffffffffffffffffffffffffffffffffffffff826200018c565b620001d786836200018c565b95508019841693508086168417925050509392505050565b6000819050919050565b6000819050919050565b6000620002246200021e6200021884620001ef565b620001f9565b620001ef565b9050919050565b6000819050919050565b620002408362000203565b620002586200024f826200022b565b84845462000199565b825550505050565b600090565b6200026f62000260565b6200027c81848462000235565b505050565b5b81811015620002a4576200029860008262000265565b60018101905062000282565b5050565b601f821115620002f357620002bd8162000167565b620002c8846200017c565b81016020851015620002d8578190505b620002f0620002e7856200017c565b83018262000281565b50505b505050565b600082821c905092915050565b60006200031860001984600802620002f8565b1980831691505092915050565b600062000333838362000305565b9150826002028217905092915050565b6200034e82620000c9565b67ffffffffffffffff8111156200036a5762000369620000d4565b5b62000376825462000132565b62000383828285620002a8565b600060209050601f831160018114620003bb5760008415620003a6578287015190505b620003b2858262000325565b86555062000422565b601f198416620003cb8662000167565b60005b82811015620003f557848901518255600182019150602085019450602081019050620003ce565b8683101562000415578489015162000411601f89168262000305565b8355505b6001600288020188555050505b505050505050565b6127a9806200043a6000396000f3fe6080604052600436106100dd5760003560e01c806370a082311161007f578063b88d4fde11610059578063b88d4fde146102d0578063c87b56dd146102f9578063e59aee0c14610336578063e985e9c514610366576100dd565b806370a082311461023f57806395d89b411461027c578063a22cb465146102a7576100dd565b8063095ea7b3116100bb578063095ea7b31461018757806323b872dd146101b057806342842e0e146101d95780636352211e14610202576100dd565b806301ffc9a7146100e257806306fdde031461011f578063081812fc1461014a575b600080fd5b3480156100ee57600080fd5b5061010960048036038101906101049190611aa5565b6103a3565b6040516101169190611aed565b60405180910390f35b34801561012b57600080fd5b50610134610404565b6040516101419190611b98565b60405180910390f35b34801561015657600080fd5b50610171600480360381019061016c9190611bf0565b610496565b60405161017e9190611c5e565b60405180910390f35b34801561019357600080fd5b506101ae60048036038101906101a99190611ca5565b6104dc565b005b3480156101bc57600080fd5b506101d760048036038101906101d29190611ce5565b6105f3565b005b3480156101e557600080fd5b5061020060048036038101906101fb9190611ce5565b610653565b005b34801561020e57600080fd5b5061022960048036038101906102249190611bf0565b610673565b6040516102369190611c5e565b60405180910390f35b34801561024b57600080fd5b5061026660048036038101906102619190611d38565b6106f9565b6040516102739190611d74565b60405180910390f35b34801561028857600080fd5b506102916107b0565b60405161029e9190611b98565b60405180910390f35b3480156102b357600080fd5b506102ce60048036038101906102c99190611dbb565b610842565b005b3480156102dc57600080fd5b506102f760048036038101906102f29190611f30565b610858565b005b34801561030557600080fd5b50610320600480360381019061031b9190611bf0565b6108ba565b60405161032d9190611b98565b60405180910390f35b610350600480360381019061034b9190611fb3565b6109cc565b60405161035d9190611d74565b60405180910390f35b34801561037257600080fd5b5061038d60048036038101906103889190611fb3565b610adf565b60405161039a9190611aed565b60405180910390f35b6000634906490660e01b7bffffffffffffffffffffffffffffffffffffffffffffffffffffffff1916827bffffffffffffffffffffffffffffffffffffffffffffffffffffffff191614806103fd57506103fc82610b73565b5b9050919050565b60606000805461041390612022565b80601f016020809104026020016040519081016040528092919081815260200182805461043f90612022565b801561048c5780601f106104615761010080835404028352916020019161048c565b820191906000526020600020905b81548152906001019060200180831161046f57829003601f168201915b5050505050905090565b60006104a182610c55565b6004600083815260200190815260200160002060009054906101000a900473ffffffffffffffffffffffffffffffffffffffff169050919050565b60006104e782610673565b90508073ffffffffffffffffffffffffffffffffffffffff168373ffffffffffffffffffffffffffffffffffffffff1603610557576040517f08c379a000000000000000000000000000000000000000000000000000000000815260040161054e906120c5565b60405180910390fd5b8073ffffffffffffffffffffffffffffffffffffffff16610576610ca0565b73ffffffffffffffffffffffffffffffffffffffff1614806105a557506105a48161059f610ca0565b610adf565b5b6105e4576040517f08c379a00000000000000000000000000000000000000000000000000000000081526004016105db90612157565b60405180910390fd5b6105ee8383610ca8565b505050565b6106046105fe610ca0565b82610d61565b610643576040517f08c379a000000000000000000000000000000000000000000000000000000000815260040161063a906121e9565b60405180910390fd5b61064e838383610df6565b505050565b61066e83838360405180602001604052806000815250610858565b505050565b60008061067f836110ef565b9050600073ffffffffffffffffffffffffffffffffffffffff168173ffffffffffffffffffffffffffffffffffffffff16036106f0576040517f08c379a00000000000000000000000000000000000000000000000000000000081526004016106e790612255565b60405180910390fd5b80915050919050565b60008073ffffffffffffffffffffffffffffffffffffffff168273ffffffffffffffffffffffffffffffffffffffff1603610769576040517f08c379a0000000000000000000000000000000000000000000000000000000008152600401610760906122e7565b60405180910390fd5b600360008373ffffffffffffffffffffffffffffffffffffffff1673ffffffffffffffffffffffffffffffffffffffff168152602001908152602001600020549050919050565b6060600180546107bf90612022565b80601f01602080910402602001604051908101604052809291908181526020018280546107eb90612022565b80156108385780601f1061080d57610100808354040283529160200191610838565b820191906000526020600020905b81548152906001019060200180831161081b57829003601f168201915b5050505050905090565b61085461084d610ca0565b838361112c565b5050565b610869610863610ca0565b83610d61565b6108a8576040517f08c379a000000000000000000000000000000000000000000000000000000000815260040161089f906121e9565b60405180910390fd5b6108b484848484611298565b50505050565b60606108c582610c55565b60006006600084815260200190815260200160002080546108e590612022565b80601f016020809104026020016040519081016040528092919081815260200182805461091190612022565b801561095e5780601f106109335761010080835404028352916020019161095e565b820191906000526020600020905b81548152906001019060200180831161094157829003601f168201915b50505050509050600061096f6112f4565b905060008151036109845781925050506109c7565b6000825111156109b95780826040516020016109a1929190612343565b604051602081830303815290604052925050506109c7565b6109c28461130b565b925050505b919050565b60006109e2676461c399d240c9f260c01b611373565b6109f66742234626ca16438f60c01b611373565b610a0a6754246c8bedce46bf60c01b611373565b6000610a166007611376565b9050610a2c67ceac5d716d5cddf960c01b611373565b610a4067d11bcb348931613960c01b611373565b610a4a8382611384565b610a5d666e743c0797d0f160c01b611373565b610a7167f941a92f6cc2c65360c01b611373565b610a7b84826104dc565b610a8f673631570b6005a3cd60c01b611373565b610aa36754d0f474878c0f3e60c01b611373565b610aad60076115a1565b610ac16713d12976c33770a960c01b611373565b610ad567489f45061048325160c01b611373565b8091505092915050565b6000600560008473ffffffffffffffffffffffffffffffffffffffff1673ffffffffffffffffffffffffffffffffffffffff16815260200190815260200160002060008373ffffffffffffffffffffffffffffffffffffffff1673ffffffffffffffffffffffffffffffffffffffff16815260200190815260200160002060009054906101000a900460ff16905092915050565b60007f80ac58cd000000000000000000000000000000000000000000000000000000007bffffffffffffffffffffffffffffffffffffffffffffffffffffffff1916827bffffffffffffffffffffffffffffffffffffffffffffffffffffffff19161480610c3e57507f5b5e139f000000000000000000000000000000000000000000000000000000007bffffffffffffffffffffffffffffffffffffffffffffffffffffffff1916827bffffffffffffffffffffffffffffffffffffffffffffffffffffffff1916145b80610c4e5750610c4d826115b7565b5b9050919050565b610c5e81611621565b610c9d576040517f08c379a0000000000000000000000000000000000000000000000000000000008152600401610c9490612255565b60405180910390fd5b50565b600033905090565b816004600083815260200190815260200160002060006101000a81548173ffffffffffffffffffffffffffffffffffffffff021916908373ffffffffffffffffffffffffffffffffffffffff160217905550808273ffffffffffffffffffffffffffffffffffffffff16610d1b83610673565b73ffffffffffffffffffffffffffffffffffffffff167f8c5be1e5ebec7d5bd14f71427d1e84f3dd0314c0f7b2291e5b200ac8c7c3b92560405160405180910390a45050565b600080610d6d83610673565b90508073ffffffffffffffffffffffffffffffffffffffff168473ffffffffffffffffffffffffffffffffffffffff161480610daf5750610dae8185610adf565b5b80610ded57508373ffffffffffffffffffffffffffffffffffffffff16610dd584610496565b73ffffffffffffffffffffffffffffffffffffffff16145b91505092915050565b8273ffffffffffffffffffffffffffffffffffffffff16610e1682610673565b73ffffffffffffffffffffffffffffffffffffffff1614610e6c576040517f08c379a0000000000000000000000000000000000000000000000000000000008152600401610e63906123d9565b60405180910390fd5b600073ffffffffffffffffffffffffffffffffffffffff168273ffffffffffffffffffffffffffffffffffffffff1603610edb576040517f08c379a0000000000000000000000000000000000000000000000000000000008152600401610ed29061246b565b60405180910390fd5b610ee88383836001611662565b8273ffffffffffffffffffffffffffffffffffffffff16610f0882610673565b73ffffffffffffffffffffffffffffffffffffffff1614610f5e576040517f08c379a0000000000000000000000000000000000000000000000000000000008152600401610f55906123d9565b60405180910390fd5b6004600082815260200190815260200160002060006101000a81549073ffffffffffffffffffffffffffffffffffffffff02191690556001600360008573ffffffffffffffffffffffffffffffffffffffff1673ffffffffffffffffffffffffffffffffffffffff168152602001908152602001600020600082825403925050819055506001600360008473ffffffffffffffffffffffffffffffffffffffff1673ffffffffffffffffffffffffffffffffffffffff16815260200190815260200160002060008282540192505081905550816002600083815260200190815260200160002060006101000a81548173ffffffffffffffffffffffffffffffffffffffff021916908373ffffffffffffffffffffffffffffffffffffffff160217905550808273ffffffffffffffffffffffffffffffffffffffff168473ffffffffffffffffffffffffffffffffffffffff167fddf252ad1be2c89b69c2b068fc378daa952ba7f163c4a11628f55a4df523b3ef60405160405180910390a46110ea8383836001611668565b505050565b60006002600083815260200190815260200160002060009054906101000a900473ffffffffffffffffffffffffffffffffffffffff169050919050565b8173ffffffffffffffffffffffffffffffffffffffff168373ffffffffffffffffffffffffffffffffffffffff160361119a576040517f08c379a0000000000000000000000000000000000000000000000000000000008152600401611191906124d7565b60405180910390fd5b80600560008573ffffffffffffffffffffffffffffffffffffffff1673ffffffffffffffffffffffffffffffffffffffff16815260200190815260200160002060008473ffffffffffffffffffffffffffffffffffffffff1673ffffffffffffffffffffffffffffffffffffffff16815260200190815260200160002060006101000a81548160ff0219169083151502179055508173ffffffffffffffffffffffffffffffffffffffff168373ffffffffffffffffffffffffffffffffffffffff167f17307eab39ab6107e8899845ad3d59bd9653f200f220920489ca2b5937696c318360405161128b9190611aed565b60405180910390a3505050565b6112a3848484610df6565b6112af8484848461166e565b6112ee576040517f08c379a00000000000000000000000000000000000000000000000000000000081526004016112e590612569565b60405180910390fd5b50505050565b606060405180602001604052806000815250905090565b606061131682610c55565b60006113206112f4565b90506000815111611340576040518060200160405280600081525061136b565b8061134a846117f5565b60405160200161135b929190612343565b6040516020818303038152906040525b915050919050565b50565b600081600001549050919050565b600073ffffffffffffffffffffffffffffffffffffffff168273ffffffffffffffffffffffffffffffffffffffff16036113f3576040517f08c379a00000000000000000000000000000000000000000000000000000000081526004016113ea906125d5565b60405180910390fd5b6113fc81611621565b1561143c576040517f08c379a000000000000000000000000000000000000000000000000000000000815260040161143390612641565b60405180910390fd5b61144a600083836001611662565b61145381611621565b15611493576040517f08c379a000000000000000000000000000000000000000000000000000000000815260040161148a90612641565b60405180910390fd5b6001600360008473ffffffffffffffffffffffffffffffffffffffff1673ffffffffffffffffffffffffffffffffffffffff16815260200190815260200160002060008282540192505081905550816002600083815260200190815260200160002060006101000a81548173ffffffffffffffffffffffffffffffffffffffff021916908373ffffffffffffffffffffffffffffffffffffffff160217905550808273ffffffffffffffffffffffffffffffffffffffff16600073ffffffffffffffffffffffffffffffffffffffff167fddf252ad1be2c89b69c2b068fc378daa952ba7f163c4a11628f55a4df523b3ef60405160405180910390a461159d600083836001611668565b5050565b6001816000016000828254019250508190555050565b60007f01ffc9a7000000000000000000000000000000000000000000000000000000007bffffffffffffffffffffffffffffffffffffffffffffffffffffffff1916827bffffffffffffffffffffffffffffffffffffffffffffffffffffffff1916149050919050565b60008073ffffffffffffffffffffffffffffffffffffffff16611643836110ef565b73ffffffffffffffffffffffffffffffffffffffff1614159050919050565b50505050565b50505050565b600061168f8473ffffffffffffffffffffffffffffffffffffffff166118c3565b156117e8578373ffffffffffffffffffffffffffffffffffffffff1663150b7a026116b8610ca0565b8786866040518563ffffffff1660e01b81526004016116da94939291906126b6565b6020604051808303816000875af192505050801561171657506040513d601f19601f820116820180604052508101906117139190612717565b60015b611798573d8060008114611746576040519150601f19603f3d011682016040523d82523d6000602084013e61174b565b606091505b506000815103611790576040517f08c379a000000000000000000000000000000000000000000000000000000000815260040161178790612569565b60405180910390fd5b805181602001fd5b63150b7a0260e01b7bffffffffffffffffffffffffffffffffffffffffffffffffffffffff1916817bffffffffffffffffffffffffffffffffffffffffffffffffffffffff1916149150506117ed565b600190505b949350505050565b606060006001611804846118e6565b01905060008167ffffffffffffffff81111561182357611822611e05565b5b6040519080825280601f01601f1916602001820160405280156118555781602001600182028036833780820191505090505b509050600082602001820190505b6001156118b8578080600190039150507f3031323334353637383961626364656600000000000000000000000000000000600a86061a8153600a85816118ac576118ab612744565b5b04945060008503611863575b819350505050919050565b6000808273ffffffffffffffffffffffffffffffffffffffff163b119050919050565b600080600090507a184f03e93ff9f4daa797ed6e38ed64bf6a1f0100000000000000008310611944577a184f03e93ff9f4daa797ed6e38ed64bf6a1f010000000000000000838161193a57611939612744565b5b0492506040810190505b6d04ee2d6d415b85acef81000000008310611981576d04ee2d6d415b85acef8100000000838161197757611976612744565b5b0492506020810190505b662386f26fc1000083106119b057662386f26fc1000083816119a6576119a5612744565b5b0492506010810190505b6305f5e10083106119d9576305f5e10083816119cf576119ce612744565b5b0492506008810190505b61271083106119fe5761271083816119f4576119f3612744565b5b0492506004810190505b60648310611a215760648381611a1757611a16612744565b5b0492506002810190505b600a8310611a30576001810190505b80915050919050565b6000604051905090565b600080fd5b600080fd5b60007fffffffff0000000000000000000000000000000000000000000000000000000082169050919050565b611a8281611a4d565b8114611a8d57600080fd5b50565b600081359050611a9f81611a79565b92915050565b600060208284031215611abb57611aba611a43565b5b6000611ac984828501611a90565b91505092915050565b60008115159050919050565b611ae781611ad2565b82525050565b6000602082019050611b026000830184611ade565b92915050565b600081519050919050565b600082825260208201905092915050565b60005b83811015611b42578082015181840152602081019050611b27565b60008484015250505050565b6000601f19601f8301169050919050565b6000611b6a82611b08565b611b748185611b13565b9350611b84818560208601611b24565b611b8d81611b4e565b840191505092915050565b60006020820190508181036000830152611bb28184611b5f565b905092915050565b6000819050919050565b611bcd81611bba565b8114611bd857600080fd5b50565b600081359050611bea81611bc4565b92915050565b600060208284031215611c0657611c05611a43565b5b6000611c1484828501611bdb565b91505092915050565b600073ffffffffffffffffffffffffffffffffffffffff82169050919050565b6000611c4882611c1d565b9050919050565b611c5881611c3d565b82525050565b6000602082019050611c736000830184611c4f565b92915050565b611c8281611c3d565b8114611c8d57600080fd5b50565b600081359050611c9f81611c79565b92915050565b60008060408385031215611cbc57611cbb611a43565b5b6000611cca85828601611c90565b9250506020611cdb85828601611bdb565b9150509250929050565b600080600060608486031215611cfe57611cfd611a43565b5b6000611d0c86828701611c90565b9350506020611d1d86828701611c90565b9250506040611d2e86828701611bdb565b9150509250925092565b600060208284031215611d4e57611d4d611a43565b5b6000611d5c84828501611c90565b91505092915050565b611d6e81611bba565b82525050565b6000602082019050611d896000830184611d65565b92915050565b611d9881611ad2565b8114611da357600080fd5b50565b600081359050611db581611d8f565b92915050565b60008060408385031215611dd257611dd1611a43565b5b6000611de085828601611c90565b9250506020611df185828601611da6565b9150509250929050565b600080fd5b600080fd5b7f4e487b7100000000000000000000000000000000000000000000000000000000600052604160045260246000fd5b611e3d82611b4e565b810181811067ffffffffffffffff82111715611e5c57611e5b611e05565b5b80604052505050565b6000611e6f611a39565b9050611e7b8282611e34565b919050565b600067ffffffffffffffff821115611e9b57611e9a611e05565b5b611ea482611b4e565b9050602081019050919050565b82818337600083830152505050565b6000611ed3611ece84611e80565b611e65565b905082815260208101848484011115611eef57611eee611e00565b5b611efa848285611eb1565b509392505050565b600082601f830112611f1757611f16611dfb565b5b8135611f27848260208601611ec0565b91505092915050565b60008060008060808587031215611f4a57611f49611a43565b5b6000611f5887828801611c90565b9450506020611f6987828801611c90565b9350506040611f7a87828801611bdb565b925050606085013567ffffffffffffffff811115611f9b57611f9a611a48565b5b611fa787828801611f02565b91505092959194509250565b60008060408385031215611fca57611fc9611a43565b5b6000611fd885828601611c90565b9250506020611fe985828601611c90565b9150509250929050565b7f4e487b7100000000000000000000000000000000000000000000000000000000600052602260045260246000fd5b6000600282049050600182168061203a57607f821691505b60208210810361204d5761204c611ff3565b5b50919050565b7f4552433732313a20617070726f76616c20746f2063757272656e74206f776e6560008201527f7200000000000000000000000000000000000000000000000000000000000000602082015250565b60006120af602183611b13565b91506120ba82612053565b604082019050919050565b600060208201905081810360008301526120de816120a2565b9050919050565b7f4552433732313a20617070726f76652063616c6c6572206973206e6f7420746f60008201527f6b656e206f776e6572206f7220617070726f76656420666f7220616c6c000000602082015250565b6000612141603d83611b13565b915061214c826120e5565b604082019050919050565b6000602082019050818103600083015261217081612134565b9050919050565b7f4552433732313a2063616c6c6572206973206e6f7420746f6b656e206f776e6560008201527f72206f7220617070726f76656400000000000000000000000000000000000000602082015250565b60006121d3602d83611b13565b91506121de82612177565b604082019050919050565b60006020820190508181036000830152612202816121c6565b9050919050565b7f4552433732313a20696e76616c696420746f6b656e2049440000000000000000600082015250565b600061223f601883611b13565b915061224a82612209565b602082019050919050565b6000602082019050818103600083015261226e81612232565b9050919050565b7f4552433732313a2061646472657373207a65726f206973206e6f74206120766160008201527f6c6964206f776e65720000000000000000000000000000000000000000000000602082015250565b60006122d1602983611b13565b91506122dc82612275565b604082019050919050565b60006020820190508181036000830152612300816122c4565b9050919050565b600081905092915050565b600061231d82611b08565b6123278185612307565b9350612337818560208601611b24565b80840191505092915050565b600061234f8285612312565b915061235b8284612312565b91508190509392505050565b7f4552433732313a207472616e736665722066726f6d20696e636f72726563742060008201527f6f776e6572000000000000000000000000000000000000000000000000000000602082015250565b60006123c3602583611b13565b91506123ce82612367565b604082019050919050565b600060208201905081810360008301526123f2816123b6565b9050919050565b7f4552433732313a207472616e7366657220746f20746865207a65726f2061646460008201527f7265737300000000000000000000000000000000000000000000000000000000602082015250565b6000612455602483611b13565b9150612460826123f9565b604082019050919050565b6000602082019050818103600083015261248481612448565b9050919050565b7f4552433732313a20617070726f766520746f2063616c6c657200000000000000600082015250565b60006124c1601983611b13565b91506124cc8261248b565b602082019050919050565b600060208201905081810360008301526124f0816124b4565b9050919050565b7f4552433732313a207472616e7366657220746f206e6f6e20455243373231526560008201527f63656976657220696d706c656d656e7465720000000000000000000000000000602082015250565b6000612553603283611b13565b915061255e826124f7565b604082019050919050565b6000602082019050818103600083015261258281612546565b9050919050565b7f4552433732313a206d696e7420746f20746865207a65726f2061646472657373600082015250565b60006125bf602083611b13565b91506125ca82612589565b602082019050919050565b600060208201905081810360008301526125ee816125b2565b9050919050565b7f4552433732313a20746f6b656e20616c7265616479206d696e74656400000000600082015250565b600061262b601c83611b13565b9150612636826125f5565b602082019050919050565b6000602082019050818103600083015261265a8161261e565b9050919050565b600081519050919050565b600082825260208201905092915050565b600061268882612661565b612692818561266c565b93506126a2818560208601611b24565b6126ab81611b4e565b840191505092915050565b60006080820190506126cb6000830187611c4f565b6126d86020830186611c4f565b6126e56040830185611d65565b81810360608301526126f7818461267d565b905095945050505050565b60008151905061271181611a79565b92915050565b60006020828403121561272d5761272c611a43565b5b600061273b84828501612702565b91505092915050565b7f4e487b7100000000000000000000000000000000000000000000000000000000600052601260045260246000fdfea26469706673582212207151c508f2548bd646a89cff178c23280e57eaf76b4f15836caa2ef7f1ae176d64736f6c63430008110033",
  "linkReferences": {},
  "deployedLinkReferences": {}
}